:020000040800F2
:1000000000280020790C0008C90C0008C90C000861
:10001000C90C0008C90C0008C90C00080000000049
:10002000000000000000000000000000C90C0008F3
:10003000C90C000800000000C90C0008B107000846
:10004000C90C0008C90C0008C90C0008C90C00083C
:10005000C90C0008C90C0008C90C0008C90C00082C
:10006000C90C0008C90C0008C90C000801080008E8
:10007000310800086108000891080008C10800085C
:10008000F108000821090008C90C0008C90C000883
:10009000C90C0008C90C0008C90C0008C90C0008EC
:1000A000C90C0008C90C0008C90C0008C90C0008DC
:1000B000C90C0008C90C0008C90C0008C90C0008CC
:1000C000C90C0008C90C0008C90C0008C90C0008BC
:1000D000C90C0008C90C0008C90C0008A50B0008D1
:1000E000C90C0008C90C000800000000C90C000879
:1000F000C90C0008C90C0008C90C0008C90C00088C
:10010000C90C0008C90C0008C90C0008C90C00087B
:10011000C90C0008C90C0008C90C0008C90C00086B
:10012000C90C0008C90C0008C90C0008C90C00085B
:1001300010B5054C237833B9044B13B10448AFF321
:1001400000800123237010BD00000020000000008B
:10015000140D000808B5034B1BB103490348AFF366
:10016000008008BD0000000004000020140D0008FD
:1001700080B483B000AF0346FB71FB790D2B41D8EF
:1001800001A252F823F000BFF7010008E9010008BE
:10019000C101000805020008050200080502000868
:1001A0000502000805020008050200080502000813
:1001B000050200080502000805020008CF0100083A
:1001C000134B5B68124A43F0040353601AE0104B70
:1001D0005B680F4A23F4005353600D4B5B680C4A75
:1001E00043F4804353600DE0094B5B68084A43F0D9
:1001F0000203536006E0064B5B68054A43F00103C7
:10020000536000BF00BF0C37BD4680BC704700BFC5
:100210000000014080B500AF1921012000F068FC0A
:100220000021022000F064FC0D20FFF7A1FF022155
:10023000022000F05DFC04220B21002000F088FB6E
:100240000A220C21002000F083FB274B1B68264A62
:1002500023F00203136000BF234B5B6803F002032B
:10026000002BF9D1204B1B681F4A43F00103136098
:1002700000BF1D4B5B6803F00103012BF9D11A4B42
:100280001B68194A23F004031360174B1B68164AB6
:1002900023F008031360144B1B68134A23F0100368
:1002A0001360114B1B68104A43F0200313600E4B80
:1002B0001B680D4A43F0400313600B4B1B680A4A4E
:1002C00023F0800313600223013B1B051A460F2312
:1002D000013B1B0413430422013A1343024A43F037
:1002E0008043D36100BF80BD0064004080B485B00E
:1002F00000AF786039604E4B9B68FB60FB6803F091
:100300008063002B0AD1FB6803F00063002B05D14A
:10031000FB6803F08053002B00F08480FB681B0E09
:1003200003F00303BB60BB68022B7BD87B689B6830
:10033000002B0CD17B681B685A057B68DB683C4945
:100340001A43BB6818331B010B441A600EE07B682C
:100350005B68DA007B689B681A437B68DB6834491A
:100360001A43BB6818331B010B441A6030497B6881
:100370001A69BB6818331B010B4404331A607B688D
:100380001B7D012B0FD12A4ABB6818331B01134474
:1003900004331B68264943F48072BB6818331B0181
:1003A0000B4404331A603B6807331B781A063B681A
:1003B00006331B781B041A433B6805331B781B026A
:1003C00013433A680432127819491A43BB681B0177
:1003D0000B4403F5C6731A603B6803331B781A0697
:1003E0003B6802331B781B041A433B6801331B78BC
:1003F0001B0213433A6812780D491A43BB681B016C
:100400000B4403F5C4731A60094ABB6818331B0117
:1004100013441B68064943F00102BB6818331B01F3
:100420000B441A6000BF1437BD4680BC704700BF44
:100430000064004080B400AF084B1B68074A23F0FB
:100440000103136000BF054B5B6803F00103002B41
:10045000F9D100BF00BFBD4680BC704700640040BA
:1004600080B487B000AFF860B9607A60504AFB682A
:100470001B331B0113441B689B0803F00102BB687C
:100480009A60BB689B68002B09D1494AFB681B3303
:100490001B0113441B685A0DBB681A6008E0444AEC
:1004A000FB681B331B0113441B68DA08BB685A60E6
:1004B0003F4AFB681B331B0113441B685B0803F0B6
:1004C0000102BB68DA603A4AFB681B331B01134424
:1004D00004331B6803F00F02BB681A61344AFB68DF
:1004E0001B331B01134404331B681B0ADAB2BB68BD
:1004F0009A612F4AFB681B331B01134404331B68AA
:100500001B0C9AB2BB685A610023FB7507E0FB7DA8
:100510007A68134400221A70FB7D0133FB75FB7D62
:10052000072BF4D90023BB7527E0BB7D032B10D824
:100530001F4AFB681B01134403F5DC731A68BB7D7B
:10054000DB0022FA03F1BB7D7A681344CAB21A7049
:1005500010E0174AFB681B01134403F5DE731A68A9
:10056000BB7D043BDB0022FA03F1BB7D7A681344B8
:10057000CAB21A70BB7D0133BB75BA7DBB681B69FB
:100580009A42D2D3FB68002B06D1094BDB68084A9C
:1005900043F02003D36005E0054B1B69044A43F098
:1005A0002003136100BF1C37BD4680BC704700BFED
:1005B0000064004080B485B000AF7860644BD3F82D
:1005C0000032634A43F00103C2F800327B685B6982
:1005D000FB605F4BD3F81C327A685269012101FA43
:1005E00002F2D24311465A4A0B40C2F81C327B68D1
:1005F000DB69002B28D1564BD3F80C320121FA6865
:1006000001FA02F2D2431146514A0B40C2F80C32B1
:100610007B68DB6819047B685B689AB24C487B682E
:100620005B690A43483340F833207B689B681904B0
:100630007B681B689AB246487B685B690A4348330B
:10064000DB0003445A602AE07B68DB69012B26D17A
:100650003F4BD3F80C320121FA6801FA02F211463D
:100660003B4A0B43C2F80C327B681B6819047B6859
:100670005B689AB236487B685B690A43483340F846
:1006800033207B689B6819047B68DB689AB230482A
:100690007B685B690A434833DB0003445A607B682C
:1006A0009B69002B0DD12A4BD3F804320121FA6843
:1006B00001FA02F2D2431146254A0B40C2F8043235
:1006C0000BE0234BD3F804320121FA6801FA02F25D
:1006D00011461F4A0B43C2F804327B681B69002B8A
:1006E0000DD11B4BD3F814320121FA6801FA02F242
:1006F000D2431146164A0B40C2F814320BE0144B99
:10070000D3F814320121FA6801FA02F21146104AB4
:100710000B43C2F814327B681B6A012B0BD10C4BC4
:10072000D3F81C320121FA6801FA02F21146084A94
:100730000B43C2F81C32064BD3F80032044A23F0B4
:100740000103C2F8003200BF1437BD4680BC7047B9
:100750000064004080B582B000AF7860054B5A69F4
:1007600004497B6813434B6100F05AFA00BF083715
:10077000BD4680BD0064004080B483B000AF034636
:10078000FB710A4A97F907305B09803352F823203E
:10079000FB7903F01F0322FA03F3DBB203F001033A
:1007A000DBB218460C37BD4680BC704700E100E064
:1007B00080B500AF0F4B1B78DBB2002B11D10E4B75
:1007C0001B680D4A23F0010313600B4B00225A6093
:1007D000094B00229A60084B1B68074A23F002036A
:1007E0001360064B1B68002B02D0044B1B68984714
:1007F00000BF80BD2000002010E000E01C000020B1
:1008000080B500AF084B1B6803F00103012B03D137
:10081000064B1B68984701E0034B1B68024B012203
:100820005A6000BF80BD00BF0000024024000020CD
:1008300080B500AF084B1B6803F00503012B03D103
:10084000064B5B68984701E0034B1B68024B102284
:100850005A6000BF80BD00BF00000240240000209D
:1008600080B500AF084B1B6803F00903012B03D1CF
:10087000064B9B68984701E0034B1B68024B4FF403
:1008800080725A6000BF80BD00000240240000203A
:1008900080B500AF084B1B6803F00D03012B03D19B
:1008A000064BDB68984701E0034B1B68024B4FF493
:1008B00080525A6000BF80BD00000240240000202A
:1008C00080B500AF084B1B6803F01103012B03D167
:1008D000064B1B69984701E0034B1B68024B4FF422
:1008E00080325A6000BF80BD00000240240000201A
:1008F00080B500AF084B1B6803F01503012B03D133
:10090000064B5B69984701E0034B1B68024B4FF4B1
:1009100080125A6000BF80BD000002402400002009
:1009200080B500AF084B1B6803F01903012B03D1FE
:10093000064B9B69984701E0034B1B68024B4FF045
:1009400080725A6000BF80BD000002402400002079
:1009500080B483B000AF0346FB710B46BB711346F6
:100960007B71FB79022B78D0022B00F3AE80002B39
:1009700002D0012B39D0A8E0BB79072B17D8594BEF
:100980001B68BA7992000F2101FA02F2D243114694
:10099000544A0B401360534B1B687979BA79920023
:1009A00001FA02F211464F4A0B4313608FE0BB7904
:1009B0000F2B00F28C804B4B5B68BA79083A92009F
:1009C0000F2101FA02F2D2431146464A0B4053600E
:1009D000444B5B687979BA79083A920001FA02F2DD
:1009E0001146404A0B43536071E0BB79072B17D87F
:1009F0003D4B1B68BA7992000F2101FA02F2D243F3
:100A00001146394A0B401360374B1B687979BA7924
:100A1000920001FA02F21146334A0B43136058E088
:100A2000BB790F2B55D8304B5B68BA79083A9200E6
:100A30000F2101FA02F2D24311462B4A0B405360B8
:100A4000294B5B687979BA79083A920001FA02F287
:100A50001146254A0B4353603BE0BB79072B17D85F
:100A6000224B1B68BA7992000F2101FA02F2D2439D
:100A700011461E4A0B4013601C4B1B687979BA79EA
:100A8000920001FA02F21146184A0B43136022E069
:100A9000BB790F2B1FD8154B5B68BA79083A9200C7
:100AA0000F2101FA02F2D2431146104A0B40536063
:100AB0000E4B5B687979BA79083A920001FA02F232
:100AC00011460A4A0B43536005E000BF04E000BF33
:100AD00002E000BF00E000BF00BF0C37BD4680BC95
:100AE000704700BF00080140000C014000100140A9
:100AF00080B483B000AF03460A46FB711346BB7156
:100B0000BB791F2B2AD8FB79022B1CD0022B25DCAA
:100B1000002B02D0012B0BD020E0134B5B69BA797C
:100B2000012101FA02F211460F4A0B43536115E00D
:100B30000D4BDB69BA79012101FA02F211460A4A2A
:100B40000B43D3610AE0084B9B69BA79012101FA92
:100B500002F21146044A0B43936100BF00BF0C37F9
:100B6000BD4680BC704700BF0010024080B500AF9A
:100B7000FFF750FB00F05AF800F076F8FFF75AFC48
:100B800000F022F804E0054B1B680133034A1360B0
:100B9000034B1B7A662BF6D0F2E700BF440000201F
:100BA0004800002080B500AF054B01221A702720B5
:100BB000FFF7E2FD03461A46024B1A7000BF80BDE4
:100BC000400000204100002080B586B000AF40F218
:100BD00003133B600023BB600023FB6001233B61E8
:100BE00000233B75054B66221A703B4603491846A5
:100BF000FFF77CFB00BF1837BD4680BD50000020CA
:100C000080B588B000AF3B1D044A19460020FFF7AD
:100C100027FC00BF2037BD4680BD00BF4800002034
:100C200080B500AFFFF7ECFF00BF80BD80B58AB094
:100C300000AF01237B620023BB6100237B6142F292
:100C400060037B600023BB600023FB6000233B61EB
:100C50000023FB6101233B623B1D1846FFF7AAFC02
:100C600000BF2837BD4680BD80B500AF0220FFF72A
:100C700071FD00BF80BD00000D488546AFF30080C8
:100C80000C480D490D4A002302E0D458C4500433E7
:100C9000C4188C42F9D30A4A0A4C002301E01360BD
:100CA0000432A242FBD300F011F8FFF75FFFFEE72A
:100CB000002800200000002000000020340D000863
:100CC0000000002058000020FEE7000070B500265C
:100CD0000C4D0D4C641BA410A64209D100F01AF86B
:100CE00000260A4D0A4C641BA410A64205D170BD13
:100CF00055F8043B98470136EEE755F8043B984712
:100D00000136F2E72C0D00082C0D00082C0D000810
:100D1000300D0008F8B500BFF8BC08BC9E4670470F
:0C0D2000F8B500BFF8BC08BC9E46704748
:040D2C005501000865
:040D30003101000885
:0400000508000C796A
:00000001FF
